:0300000002193CA6
:0C193C00787FE4F6D8FD75816502192F54
:1012AB000A200920092043414C43554C41544F52CD
:1012BB00200A000A2009204F707265726174696FF1
:1012CB006E7320746F20626520506572666F726D4D
:1012DB006564202E2E2E2E200A000A200920413A6A
:1012EB00204144444954494F4E200A2009204420B0
:1012FB004449564953494F4E200A2009204D3A2064
:10130B004D554C5449504C49434154494F4E200A7A
:10131B0020092053203A20535542545241435449FB
:10132B004F4E20000A20456E74657220596F7572FE
:10133B002043686F696365203A20000A204E756D63
:10134B00626572202D31203A2000526573756C74E2
:10135B00000A204E756D626572202D20323A2000F6
:10136B000A20696E66696E697479000A20552045FA
:10137B004E5445522057524F4E472043484F4943F6
:10138B0045202E2E2E2E200A000A20526573756CD6
:10139B0074203A20252E3266200A000A2049662046
:1013AB00596F75205374696C6C2057616E7420747F
:1013BB006F20436F6E74696E75652028597C4E29BA
:1013CB00202E2E2E2E2E2E20203A20000A2049666B
:1013DB0020596F75205374696C6C2057616E7420A3
:1013EB00746F2053746179206F72204558495428CB
:1013FB00537C4529202E2E2E2E2E2E20203A2000D7
:10140B000A204F4B2050726F6772616D20697320F9
:10141B00456E6420202E2E2E2E2000200A204E6595
:10142B007874206F7065726174696F6E20646F20C1
:10143B00796F752077616E7420746F20706572669A
:06144B006F726D203A00F3
:1018AF00E4FDFCC3ED9FEC9E5016758CF8758ACC49
:1018BF00D28C308DFDC28CC28D0DBD00010C80E32A
:0118CF0022F6
:10191D00758920758DFA759850D28E7F057E0002DF
:02192D0018AFF1
:0618EE007B007A00795234
:1018F400120D526010F5993099FDC299740129F9BD
:06190400E43AFA80EB2238
:1018D0007A1379A67BFF1218F4121948754C008F01
:0618E0004D121948AF4D46
:0818E6008F993099FDC299228F
:081948003098FDC298AF99220E
:061783007A0079527D148A
:0A1789008B2E8A2F89308C318D32AF
:10179300E4FDFCE53224FFFFE53134FFFEC3ED9F9A
:1017A300EE6480F8EC6480985029121948AB2EAA95
:1017B3002FA9308D828C83EF120DAA8D828C831218
:1017C3000D6BFF640D600CEF640A60070DBD000133
:1017D3000C80C0AB2EAA2FA930AE04AF058F828E2A
:0517E30083E4020DAAE1
:10145100752C00752D01E54B454A70177BFF7A12FB
:1014610079AB1218F47A1279BE1218F47F0A7E0051
:101471001218AF7BFF7A1279E51218F47A13792FDB
:101481001218F41219488F2B121948AF2B1218E6B3
:101491007A1379461218F4E54B454A701BFBFC128E
:1014A10017831219487B007A0079521218408F264F
:1014B1008E258D248C23801E855126855025854FB0
:1014C10024854E237531FF7532137533557B007AB0
:1014D1000079521217E87531FF75321375335C7B51
:1014E100007A0079521217E81218EE7E007F147DFF
:1014F100007A007952120E107B007C0012178312C1
:1015010019481218EE7A0079521218408F2A8E2942
:101511008D288C277E007F147D007B007A00795214
:10152100120E10E52B24BC602124F7604C24FA60D4
:101531005D24127076AF2AAE29AD28AC27AB26AA5E
:1015410025A924A8231208078057E4FFFEFDFCAB60
:101551002AAA29A928A827120A9E70087BFF7A13B4
:10156100796B804DAB2AAA29A928A827AF26AE25D9
:10157100AD24AC23120A018028AF2AAE29AD28ACD4
:1015810027AB26AA25A924A8231208F88013AB2A81
:10159100AA29A928A827AF26AE25AD24AC23120875
:1015A100038F518E508D4F8C4E800E7BFF7A1379B5
:1015B100761218F4E4F52CF52DE52D6401452C7017
:1015C1002D7531FF7532137533948551378550363A
:1015D100854F35854E34FB7A007952120E981218D8
:1015E100EE7E007F147D007A007952120E10752C68
:0415F10000752D0153
:0115F50022D3
:1016DC00E4F522E52214601314604F24FD7003021C
:1016EC0017792405600302177E802CE4F54AF54B2C
:1016FC001214511218D0E54D6459454C700AF54A34
:10170C00754B0175220280CB7A1379D71218D4E568
:10171C004D6453454C700575220180B77BFF7A14DC
:10172C00790B1218F475220580A97BFF7A1479269F
:10173C001218F41214511218D0E54D6459454C701E
:10174C000AF54A754B0175220280227BFF7A1379C8
:10175C00D71218D6E54D6453454C7005752201809F
:10176C000C7BFF7A14790B1218F47522057522057F
:07177C0080FE75220580FECE
:0D192F0012191D7F057E001218AF0216DC94
:10080000020B4CE86480F8E933E83360110460F0CF
:10081000ED33EC337009E8FCE9FDEAFEEBFF22045E
:1008200060DED3EB9FEA9EE99DE8C2E78CF0C2F759
:1008300095F0400CE8CCF8E9CDF9EACEFAEBCFFB25
:10084000120B1785D0F05804700320D5B3E804705C
:10085000075002B2D5020B5692D5EC0460F7E4CCF7
:10086000C0E0C398F8603B94186008400DD0E0FBEE
:10087000020B2EE4FBFAC9FC8028E830E406E4C948
:10088000FBE4CAFCE830E305E4C9CACBFCE8540742
:100890006010F8C3E913F9EA13FAEB13FBEC13FC4D
:1008A000D8F130F52FC3E49CFCEF9BFFEE9AFEEDF0
:1008B00099FDD0E0FBEF4E4D4C701222DB03020B92
:1008C00053EC2CFCEF33FFEE33FEED33FDED30E760
:1008D000EB020B2EEF2BFFEE3AFEED39FDD0E0FBE5
:1008E00050130BBB0003020B56ED13FDEE13FEEF8E
:0808F00013FFEC13FC020B2EB8
:1008F800EC4D6011E8497017ED33EC3304600DE4FA
:10090800FCFFFEFD22E933E8330470F8020B4C12B9
:100918000B1758046009E4CC2481500628500902BA
:100928000B56284003020B53C0E0EB4A7044B980D1
:1009380006D0E0FB020B42EF4E701CBD8008EBFFB7
:10094800EAFEE9FD80EBE98DF0A4FEE5F00209E19D
:10095800E9CDF9EAFEEBFFEF89F0A4FCE5F0CE89DA
:10096800F0A42EFFE435F0CD89F0A42DFEE435F097
:100978008067EF4E7005BD80D780C3EF8BF0A4ACC5
:10098800F0EE8BF0A42CFCE435F0F8EF8AF0A42C00
:10099800E5F038FCE433CB8DF0A42CFCE5F03BF813
:1009A800EE8AF0A42CFCE5F038F8E433CF89F0A403
:1009B8002CFCE5F038CF3400CE89F0A42FFFE5F009
:1009C8003EFEE433C98DF0A42EFEE5F039CD8AF061
:1009D800A42FFFE5F03EFEE43DFD33D0E0FB5007D9
:1009E8000BBB000F020B56EC2CFCEF33FFEE33FE73
:0609F800ED33FD020B2EA1
:1009FE00020B56EC5D046005E859047003020B4CC3
:100A0E00120B17580460F6EC4860F2EC7004FDFE11
:100A1E00FF22C860DB2481C85009C39860025006CB
:100A2E00020B539850CAF582E9294B4A7005AB82E6
:100A3E00020B4275F0007C1A7880C3EF9BEE9AEDA4
:100A4E0099400DC3EF9BFFEE9AFEED99FDE842F043
:100A5E00DC23ACF0D0E0FFD0E0FED0E0FDAB822096
:100A6E00E7101BEB60BAEC2CFCEF33FFEE33FEED20
:100A7E0033FD020B2EE803F830E705C0F075F000E9
:100A8E00EF2FFFEE33FEED33FD40B830E7C280AA04
:100A9E0074F8CC6480CCC86480C8F58204604FC3FF
:100AAE00EB9FF5F0EA9E42F0E99D42F0E89C45F09E
:100ABE00603C501DE5825FFFE582D313CB5BCBF428
:100ACE002B5582FB50280ABA002409B90020088051
:100ADE001DE5825BFBE582D313CF5FCFF4C3132FEB
:100AEE005582FF50090EBE00050DBD00010CC3EB73
:100AFE009FF5F0EA9E42F0E99D42F0E89C45F060D9
:090B0E0007CC4820E701B3EC22FA
:100E3C00E5452431F8E6054522782E300702783155
:100E4C00E475F001120DDA020D522000EB7F2ED268
:100E5C00008018EF540F2490D43440D4FF30040B8E
:100E6C00EF24BFB41A0050032461FFE5466002155D
:100E7C00460549E5497002054830070D782EE475A2
:100E8C00F001120DDAEF020D980218887403D207E4
:100E9C008003E4C207F5458B2E8A2F8930E4F54692
:100EAC00F548F549E54660077F20120E7780F57509
:100EBC0047FFC201C200C202C203C205C206C20879
:100ECC00120E45FF700D3007057F00120E88AF49DA
:100EDC00AE4822B4255FC2D5C204120E45FF24D001
:100EEC00B40A00501A75F00A784630D50508B6FFDA
:100EFC000106C6A426F620D5047002D20380D9249C
:100F0C00CFB41A00EF5004C2E5D204021175D2011D
:100F1C0080C6D20080C0D20280BCD2D580BAD205A5
:100F2C0080B47F20120E772002077401B546004072
:100F3C00F1120E3CFF120E77020EB0D208D20680D0
:100F4C0095120E3CFB120E3CFA120E3CF94A4B70F9
:100F5C0006796C7A127BFF20022EE546602A7E0011
:100F6C008E82758300120D6B60060EEE654770F075
:100F7C00C2D5EBC0E0EAC0E0E9C0E0EE1211D5D07A
:100F8C00E0F9D0E0FAD0E0FB120D52FF60AAEBC002
:100F9C00E0EAC0E0E9C0E0120E77D0E02401F9D01D
:100FAC00E03400FAD0E0FBE5470460DCD547D9809B
:100FBC0087D20280A21211B860F7E54770010412C3
:100FCC000B61A947600DE547600914F54712125FE4
:100FDC00EF60F3EA30E702F404C3995077EAF425A2
:100FEC00470430E701E404F547800D1211B860C1E5
:100FFC00EA05472547120B61EA7844F630E701E42D
:10100C00254704D54704200501141211D5E4C0E08E
:10101C0012125F7844E6601320E70714F6120E5F95
:10102C00802204F6D0E014C0E07F00120E5FE5478A
:10103C006007120E561547800B300503120E56D062
:10104C00E0020EB0D0E00480C51211B860A0E547F4
:10105C0004120B617844EAF6E547200502600104AE
:05106C0024041211D55F
:1010710074FF04C0E012125F120E5FE54720050203
:101081006003120E56D0E0B547E87F45120E69782D
:1010910044E67F2B30E7047F2DF404C0E0120E7785
:1010A100D0E075F00A84C0F0120E60D0E0120E603C
:1010B100020EB0791080027908C206C2088008D2F7
:1010C100D5790A8004790AC2D5E547047002F5474B
:1010D100E4FAFDFEFF120E3CFC7B08200113120E08
:1010E1003CFD7B1030000A120E3CFE120E3CFF7BD1
:1010F10020EC3382D592D55013C3E43000069FFF14
:10110100E49EFEE42001039DFDE49CFCE4CBF8C2D7
:1011110001EC700CCFCECDCCE824F8F870F3801739
:10112100C3EF33FFEE33FEED33FDEC33FCEB33FB6A
:10113100994002FB0FD8E9EB300105F8D0E0C44833
:10114100B201C0E00AEC4D4E4F78207B0070C2EA3C
:10115100B5470040BCC0E01211D7D0F0D0E020016B
:1011610004C4C0E0C4B201C0F0120E60D0F0D5F0EA
:10117100EB020EB0120DEA0F4D5310B4580F1E4C76
:101181000F1A4210B84F10C04410C0490F3343101A
:10119100C6550FF7461055450FC147128C500F2207
:1011A1002D0F262E0F492B0F2A230F472012752AA8
:1011B1000EE24800000F41E547B4FF0375470612F0
:1011C1000E3CFC120E3CFD120E3CFE120E3CFF7852
:1011D1003D020B90790AA2D5200314300509B910FC
:1011E100020404B9080104A2D5200602500104201A
:1011F10002689202B546005034C0E07F20300319E6
:101201007F30A20272067205500F12122EC202C264
:1012110006C205C2087F30800F300503E9C0E01225
:101221000E77300503D0E0F9D0E0B546CC30051794
:101231007F30B9100C120E777F583004077F788009
:1012410003B90803120E773002057F2D020E777F56
:10125100202008F87F2B2006F322920280CF7F0006
:10126100B407005005243DF8E6FF22286E756C6C2A
:101271002900D201120E3C3001F8C201784630D566
:101281000108F6020EE22D50434958120E3C240388
:10129100B405004001E490128793120E68743A126B
:0A12A1000E68D2037546040210B473
:10184000D2008B2E8A2F893012187CC0E0FF12192B
:101850000AD0E040F3121609400122ECC0E0EDC0CE
:10186000E0EEC0E0EFC0E012187CD0F0AFF0D0F0B6
:10187000AEF0D0F0ADF0D0F0ACF080D9E475F0016E
:08188000782E120DDA020D5260
:100B1700E9D2E7C933E833F892D5EDD2E7CD33EC24
:070B270033FC5002B2D5229D
:100B2E00EC30E7100FBF000C0EBE00080DBD000428
:100B3E000BEB6014A2D5EB13FCED92E7FD2274FFD4
:100B4E00FCFDFEFF22E480F8A2D574FF13FC7D802D
:030B5E00E480EF41
:100B6100F920E72824F950037907E4F42402FB185B
:100B7100DBFDE624FB5014E9600DE4F618E604F60B
:0F0B8100B40A08E4F6D9F57401F60A22C2D522A7
:100B9000ED33EC3392D5FA602AB4FF33EDC2E77B34
:100BA000FF60067A0B79B5E4227A0B79BE20D50472
:100BB0007A0B79B9224E614E002B494E46002D49E1
:100BC0004E4600E47A08F608DAFC7B00740722E857
:100BD000C0E0ECC0E0EDC0E0EEC0E0EFC0E0EA75E0
:100BE000F010A4CAABF075F04DA42BFBE435F0FC7B
:100BF000EA2410FAEB34C5FBEC34D9FCEDC2E7FF74
:100C000075F056A4F42411C5F0F434C58FF0A42A6D
:100C1000E5F03BE43CF620E714120D12D0E0FFD0E3
:100C2000E0FED0E0FDD0E0FC120A018014F40412D2
:100C30000D12D0E0FFD0E0FED0E0FDD0E0FC1208C5
:100C4000F8D0E0F8E6FAEDD2E7CD33EC332482FBBE
:100C5000E4C3CF33CFCE33CECD33CD33DBF37B07FD
:100C600075F00A846004F6081B0AE5F0F6088FF0B8
:100C7000740AA4FFACF08EF0740AA42CFEACF05001
:100C8000010C8DF0740AA42CFDE435F0F608DBDECF
:030C9000740722C4
:1015F600C201C202C203C204F9E4F531F532FCFDB0
:10160600FEFFE91000EA20030CB42D04D203D32216
:10161600B42B02D32224D0504794095041240A30D7
:101626000415F88532F0740AA42872E74051C5F013
:10163600704D85F032D322D202C0E0E4FBFA792065
:1016460078411208F8ECF8EDF9EEFAEFFBD0E0FC81
:10165600E4120CAE1208073001B41531D322240A65
:10166600200420B4FE0720011AD201D32224EB6005
:101676000424E0700EA2039201D204C203D322C353
:10168600020B4CE430040BE532300302F404A201F1
:1016960092033002EA253120D2E5A2E792045002F5
:1016A600F404B4260050D8CCC0E0EDC0E0EEC0E0B3
:1016B600EFC0E0EC120D12D0E0FFD0E0FED0E0FD6E
:1016C600D0E0FC2004051208F88003120A0130035A
:0616D60003120C93C32275
:100C9300ED33EC33600A047003BD8004ECB2E7FC6F
:010CA300222E
:100CA40075F020800E75F010800575F0087D007ECB
:100CB400007F003392D530D503120DCCEC334010B5
:100CC400EF33FFEE33FEED33FDEC33FCD5F0ED22D4
:0E0CD400E5F0247EA2D513CC92E7CDCEFF2210
:100CE2003F8000004120000042C80000447A00001A
:100CF200461C400047C35000497424004B1896809C
:100D02004CBEBC205A0E1BCA6753C21C749DC5AE92
:100D1200FB60065407601C2323120D40EB5438601D
:100D220009120D2C120D3B1208F8ECF8EDF9EEFA4F
:100D3200EFCB22EB120D3B80F1543803241C900CB4
:100D4200E2FE93FC0EEE93FD0EEE930ECE93FF2287
:100D5200BB010689828A83E0225002E722BBFE029F
:090D6200E32289828A83E49322D2
:100D6B00BB010CE58229F582E5833AF583E022503D
:100D7B0006E92582F8E622BBFE06E92582F8E22287
:0D0D8B00E58229F582E5833AF583E49322A1
:100D9800BB010689828A83F0225002F722BBFE013A
:020DA800F32234
:100DAA00F8BB010DE58229F582E5833AF583E8F07F
:100DBA00225006E92582C8F622BBFE05E92582C82B
:020DCA00F22213
:0E0DCC00C3E49FFFE49EFEE49DFDE49CFC2238
:100DDA00FAE6FB0808E6F925F0F618E6CA3AF6221A
:100DEA00D083D082F8E4937012740193700DA3A398
:100DFA0093F8740193F5828883E4737402936860AC
:060E0A00EFA3A3A380DFAB
:10188800EFB40A07740D121893740A309811A899C6
:10189800B8130CC2983098FDA899C298B811F630C0
:0718A80099FDC299F5992298
:10190A00EFC394094005EF940E4003BF2003D38030
:03191A0001C322E4
:1017E8008B2E8A2F89308B348A358936AB2E05307B
:1017F800E530AA2F7002052F14F9120D5270ED74FE
:10180800FF2530F53074FF352FF52FAB310533E563
:1018180033AA327002053214F9120D52FFAB2E05AD
:1018280030E530AA2F7002052F14F9EF120D9870C9
:08183800DAAB34AA35A936220F
:100E1000EF4E6012EF60010EEDBB010B89828A83F9
:100E2000F0A3DFFCDEFA2289F05007F709DFFCA906
:0C0E3000F022BBFEFCF309DFFCA9F0225D
:00000001FF
